{
  "contractName": "DepositorContract",
  "abi": [
    {
      "inputs": [
        {
          "internalType": "address",
          "name": "_contractAddr",
          "type": "address"
        },
        {
          "internalType": "address",
          "name": "_contractAddrTkn",
          "type": "address"
        }
      ],
      "stateMutability": "nonpayable",
      "type": "constructor"
    },
    {
      "inputs": [
        {
          "internalType": "address",
          "name": "",
          "type": "address"
        }
      ],
      "name": "claimers",
      "outputs": [
        {
          "internalType": "uint256",
          "name": "",
          "type": "uint256"
        }
      ],
      "stateMutability": "view",
      "type": "function",
      "constant": true
    },
    {
      "inputs": [],
      "name": "totalSupply",
      "outputs": [
        {
          "internalType": "uint256",
          "name": "",
          "type": "uint256"
        }
      ],
      "stateMutability": "view",
      "type": "function",
      "constant": true
    },
    {
      "inputs": [],
      "name": "claimTokensFromTeacher",
      "outputs": [],
      "stateMutability": "nonpayable",
      "type": "function"
    },
    {
      "inputs": [
        {
          "internalType": "uint256",
          "name": "amount",
          "type": "uint256"
        }
      ],
      "name": "withdrawTokens",
      "outputs": [],
      "stateMutability": "nonpayable",
      "type": "function"
    },
    {
      "inputs": [
        {
          "internalType": "uint256",
          "name": "amount",
          "type": "uint256"
        }
      ],
      "name": "depositTokens",
      "outputs": [],
      "stateMutability": "nonpayable",
      "type": "function"
    }
  ],
  "bytecode": "0x60806040526000805534801561001457600080fd5b506040516109733803806109738339818101604052604081101561003757600080fd5b81019080805190602001909291908051906020019092919050505081600160006101000a81548173ffffffffffffffffffffffffffffffffffffffff021916908373ffffffffffffffffffffffffffffffffffffffff16021790555080600260006101000a81548173ffffffffffffffffffffffffffffffffffffffff021916908373ffffffffffffffffffffffffffffffffffffffff160217905550505061088e806100e56000396000f3fe608060405234801561001057600080fd5b50600436106100575760003560e01c806318160ddd1461005c578063315a095d1461007a578063da62fba9146100a8578063dd49756e14610100578063e03591311461012e575b600080fd5b610064610138565b6040518082815260200191505060405180910390f35b6100a66004803603602081101561009057600080fd5b810190808035906020019092919050505061013e565b005b6100ea600480360360208110156100be57600080fd5b81019080803573ffffffffffffffffffffffffffffffffffffffff1690602001909291905050506104ad565b6040518082815260200191505060405180910390f35b61012c6004803603602081101561011657600080fd5b81019080803590602001909291905050506104c5565b005b610136610774565b005b60005481565b6000600360003373ffffffffffffffffffffffffffffffffffffffff1673ffffffffffffffffffffffffffffffffffffffff16815260200190815260200160002054116101f3576040517f08c379a000000000000000000000000000000000000000000000000000000000815260040180806020018281038252601d8152602001807f596f75206e65656420746f20636c61696d20736f6d6520746f6b656e7300000081525060200191505060405180910390fd5b600360003373ffffffffffffffffffffffffffffffffffffffff1673ffffffffffffffffffffffffffffffffffffffff168152602001908152602001600020548111156102a8576040517f08c379a00000000000000000000000000000000000000000000000000000000081526004018080602001828103825260118152602001807f4e6f7420656e6f75676820746f6b656e7300000000000000000000000000000081525060200191505060405180910390fd5b600260009054906101000a900473ffffffffffffffffffffffffffffffffffffffff1673ffffffffffffffffffffffffffffffffffffffff16639dc29fac33836040518363ffffffff1660e01b8152600401808373ffffffffffffffffffffffffffffffffffffffff1673ffffffffffffffffffffffffffffffffffffffff16815260200182815260200192505050600060405180830381600087803b15801561035157600080fd5b505af1158015610365573d6000803e3d6000fd5b50505050600160009054906101000a900473ffffffffffffffffffffffffffffffffffffffff1673ffffffffffffffffffffffffffffffffffffffff1663a9059cbb33836040518363ffffffff1660e01b8152600401808373ffffffffffffffffffffffffffffffffffffffff1673ffffffffffffffffffffffffffffffffffffffff16815260200182815260200192505050602060405180830381600087803b15801561041257600080fd5b505af1158015610426573d6000803e3d6000fd5b505050506040513d602081101561043c57600080fd5b81019080805190602001909291905050505080600360003373ffffffffffffffffffffffffffffffffffffffff1673ffffffffffffffffffffffffffffffffffffffff1681526020019081526020016000206000828254039250508190555080600080828254039250508190555050565b60036020528060005260406000206000915090505481565b6000811161053b576040517f08c379a000000000000000000000000000000000000000000000000000000000815260040180806020018281038252601f8152602001807f596f75206e65656420746f206465706f73697420736f6d6520746f6b656e730081525060200191505060405180910390fd5b600260009054906101000a900473ffffffffffffffffffffffffffffffffffffffff1673ffffffffffffffffffffffffffffffffffffffff166340c10f1933836040518363ffffffff1660e01b8152600401808373ffffffffffffffffffffffffffffffffffffffff1673ffffffffffffffffffffffffffffffffffffffff16815260200182815260200192505050600060405180830381600087803b1580156105e457600080fd5b505af11580156105f8573d6000803e3d6000fd5b50505050600160009054906101000a900473ffffffffffffffffffffffffffffffffffffffff1673ffffffffffffffffffffffffffffffffffffffff166323b872dd3330846040518463ffffffff1660e01b8152600401808473ffffffffffffffffffffffffffffffffffffffff1673ffffffffffffffffffffffffffffffffffffffff1681526020018373ffffffffffffffffffffffffffffffffffffffff1673ffffffffffffffffffffffffffffffffffffffff1681526020018281526020019350505050602060405180830381600087803b1580156106d957600080fd5b505af11580156106ed573d6000803e3d6000fd5b505050506040513d602081101561070357600080fd5b81019080805190602001909291905050505080600360003373ffffffffffffffffffffffffffffffffffffffff1673ffffffffffffffffffffffffffffffffffffffff1681526020019081526020016000206000828254019250508190555080600080828254019250508190555050565b600160009054906101000a900473ffffffffffffffffffffffffffffffffffffffff1673ffffffffffffffffffffffffffffffffffffffff166348c54b9d6040518163ffffffff1660e01b8152600401600060405180830381600087803b1580156107de57600080fd5b505af11580156107f2573d6000803e3d6000fd5b505050506103e8600360003373ffffffffffffffffffffffffffffffffffffffff1673ffffffffffffffffffffffffffffffffffffffff168152602001908152602001600020600082825401925050819055506103e8600080828254019250508190555056fea2646970667358221220af18635ebd426d71f570fe36566771248c7178dd28db07b996745a91a9c0ec4864736f6c63430006020033",
  "source": "// SPDX-License-Identifier: MIt\r\npragma solidity >=0.4.22 <0.8.0;\r\nimport \"./ERC20TD.sol\";\r\nimport \"./DepositorToken.sol\";\r\n\r\ncontract DepositorContract {\r\n    uint256 public totalSupply = 0;\r\n    address private contractAddr;\r\n    address private contractAddrTkn;\r\n    mapping(address => uint256) public claimers;\r\n\r\n    constructor(address _contractAddr, address _contractAddrTkn) public {\r\n        contractAddr = _contractAddr;\r\n        contractAddrTkn = _contractAddrTkn;\r\n    }\r\n\r\n    function claimTokensFromTeacher() public {\r\n        ERC20TD(contractAddr).claimTokens();\r\n        claimers[msg.sender] += 1000;\r\n        totalSupply += 1000;\r\n    }\r\n\r\n    // @withdrawTokens(uint256 amount)\r\n    function withdrawTokens(uint256 amount) public {\r\n        require(claimers[msg.sender] > 0, \"You need to claim some tokens\");\r\n        require(amount <= claimers[msg.sender], \"Not enough tokens\");\r\n        DepositorToken(contractAddrTkn).burn(msg.sender, amount);\r\n        ERC20TD(contractAddr).transfer(msg.sender, amount);\r\n        claimers[msg.sender] -= amount;\r\n        totalSupply -= amount;\r\n    }\r\n\r\n    // @depositTokens(uint256 amount)\r\n    // You need to approve DepositorContract with your user account before being allowed to deposit your tokens\r\n    // See TD-ERC20 contract ->  https://rinkeby.etherscan.io/address/0x58e9b79f804ebd4a3109068e1be414d0baac18ec#writeContract\r\n    function depositTokens(uint256 amount) public {\r\n        require(amount > 0, \"You need to deposit some tokens\");\r\n        DepositorToken(contractAddrTkn).mint(msg.sender, amount);\r\n        ERC20TD(contractAddr).transferFrom(msg.sender, address(this), amount);\r\n        claimers[msg.sender] += amount;\r\n        totalSupply += amount;\r\n    }\r\n}\r\n\r\n// function withdrawTokens(uint256 amount) public {\r\n//     require(claimers[msg.sender] > 0, \"You need to claim some tokens\");\r\n//     require(amount <= claimers[msg.sender], \"Not enough tokens\");\r\n//     ERC20TD(contractAddr).transfer(msg.sender, amount);\r\n//     claimers[msg.sender] -= amount;\r\n//     totalSupply -= amount;\r\n// }\r\n\r\n// function depositTokens(uint256 amount) public {\r\n//     require(amount > 0, \"You need to deposit some tokens\");\r\n//     ERC20TD(contractAddr).transferFrom(msg.sender, address(this), amount);\r\n//     claimers[msg.sender] += amount;\r\n//     totalSupply += amount;\r\n// }\r\n",
  "sourcePath": "D:/Victor/Ethereum/TD6/contracts/DepositorContract.sol",
  "compiler": {
    "name": "solc",
    "version": "0.6.2+commit.bacdbe57.Emscripten.clang"
  },
  "schemaVersion": "3.3.2",
  "updatedAt": "2020-11-28T09:12:30.970Z",
  "networkType": "ethereum",
  "devdoc": {
    "methods": {}
  },
  "userdoc": {
    "methods": {}
  }
}