{
  "contractName": "InterfaceCoin",
  "abi": [
    {
      "constant": false,
      "inputs": [],
      "name": "claimTokens",
      "outputs": [],
      "payable": false,
      "stateMutability": "nonpayable",
      "type": "function"
    }
  ],
  "bytecode": "0x6080604052348015600f57600080fd5b5060808061001e6000396000f3fe6080604052600436106039576000357c01000000000000000000000000000000000000000000000000000000009004806348c54b9d14603e575b600080fd5b348015604957600080fd5b5060506052565b005b56fea165627a7a72305820f23278f4692580e1a3f395a9288ea6a8952da912e0bfa079bc11939a887317080029",
  "source": "// SPDX-License-Identifier: MIt\r\npragma solidity >=0.4.22 <0.8.0;\r\n\r\ncontract InterfaceCoin {\r\n    function claimTokens() public {}\r\n}\r\n",
  "sourcePath": "D:\\Victor\\Ethereum\\TD6\\contracts\\Interface.sol",
  "compiler": {
    "name": "solc",
    "version": "0.5.1+commit.c8a2cb62.Emscripten.clang"
  },
  "schemaVersion": "3.2.5",
  "updatedAt": "2020-11-25T10:24:47.617Z",
  "devdoc": {
    "methods": {}
  },
  "userdoc": {
    "methods": {}
  }
}